:100000000C9463000C948B000C948B000C948B006C
:100010000C948B000C948B000C948B000C94D709DF
:100020000C948B000C948B000C948B000C940008A7
:100030000C948B000C948B000C948B000C948B0014
:100040000C94B6070C948B000C9484070C945E07F8
:100050000C948B000C948B000C948B000C948B00F4
:100060000C94BC080C948B000000000024002700B6
:100070002A0000000000250028002B0000000000DE
:1000800023002600290004040404040404040202DA
:100090000202020203030303030301020408102007
:1000A0004080010204081020010204081020000012
:1000B0000008000201000003040700000000000027
:1000C0000000A70AA20B11241FBECFEFD8E0DEBFAD
:1000D000CDBF11E0A0E0B1E0E2EAFCE102C0059092
:1000E0000D92A034B107D9F724E0A0E4B1E001C03B
:1000F0001D92A13DB207E1F710E0C2E6D0E004C0D6
:100100002197FE010E944C0CC136D107C9F70E940D
:100110001B0B0C94440E0C9400002091CB043091E6
:10012000CC048217930760F42091C7043091C8046F
:100130002115310529F0280F391FF9018081089513
:1001400080E00895AF92BF92CF92DF92EF92FF923C
:100150000F931F93CF93DF936C017B018B01040FEF
:10016000151FEB015E01AE18BF08C017D10759F08B
:100170006991D601ED91FC910190F081E02DC601CD
:100180000995892B79F7C501DF91CF911F910F91C7
:10019000FF90EF90DF90CF90BF90AF900895FC015B
:1001A000538D448D252F30E0842F90E0821B930BDC
:1001B000541710F0CF96089501970895FC01918D82
:1001C000828D981761F0A28DAE0FBF2FB11D5D9685
:1001D0008C91928D9F5F9F73928F90E008958FEF27
:1001E0009FEF0895FC01918D828D981731F0828DDB
:1001F000E80FF11D858D90E008958FEF9FEF089532
:10020000FC01918D228D892F90E0805C9F4F821B95
:1002100091098F739927089587E092E00E94000169
:1002200021E0892B09F420E0822F0895FC01A48DA0
:10023000A80FB92FB11DA35ABF4F2C91848D90E008
:1002400001968F739927848FA689B7892C93A089EB
:10025000B1898C91837080648C93938D848D981375
:1002600006C00288F389E02D80818F7D8083089508
:10027000EF92FF920F931F93CF93DF93EC0181E0F6
:10028000888F9B8D8C8D98131AC0E889F98980819D
:1002900085FF15C09FB7F894EE89FF896083E889D0
:1002A000F98980818370806480839FBF81E090E0C2
:1002B000DF91CF911F910F91FF90EF900895F62E4F
:1002C0000B8D10E00F5F1F4F0F731127E02E8C8DE9
:1002D0008E110CC00FB607FCFACFE889F98980812E
:1002E00085FFF5CFCE010E941601F1CFEB8DEC0F0B
:1002F000FD2FF11DE35AFF4FF0829FB7F8940B8F4B
:10030000EA89FB8980818062CFCFCF93DF93EC01B4
:10031000888D8823B9F0AA89BB89E889F9898C91ED
:1003200085FD03C0808186FD0DC00FB607FCF7CFA9
:100330008C9185FFF2CF808185FFEDCFCE010E94A9
:100340001601E9CFDF91CF910895833081F028F431
:10035000813099F08230A9F008958730A9F0883073
:10036000C9F08430B1F4809180008F7D03C080910A
:1003700080008F7780938000089584B58F7784BD47
:10038000089584B58F7DFBCF8091B0008F778093E7
:10039000B00008958091B0008F7DF9CFCF93DF93A7
:1003A000282F30E0F901E255FF4F8491F901E6561C
:1003B000FF4FD491F901EA57FF4FC491CC23A1F02C
:1003C00081110E94A501EC2FF0E0EE0FFF1FE45811
:1003D000FF4FA591B491EC91ED2381E090E009F4F9
:1003E00080E0DF91CF91089580E090E0FACF1F93F5
:1003F000CF93DF93282F30E0F901E255FF4F84912E
:10040000F901E656FF4FD491F901EA57FF4FC49125
:10041000CC23A9F0162F81110E94A501EC2FF0E04A
:10042000EE0FFF1FEE58FF4FA591B4918FB7F894D0
:10043000EC91111108C0D095DE23DC938FBFDF91C2
:10044000CF911F910895DE2BF8CFCF93DF9390E0EB
:10045000FC01E656FF4F24918A579F4FFC0184917F
:100460008823C9F090E0880F991FFC01E859FF4FDD
:10047000A591B491FC01EE58FF4FC591D491611143
:100480000DC09FB7F8948C91209582238C9388811E
:10049000282328839FBFDF91CF910895623051F4C4
:1004A0009FB7F8943C91822F809583238C93E881A9
:1004B0002E2BEFCF8FB7F894EC912E2B2C938FBF70
:1004C000EACF8E3008F08E508770806480937C0075
:1004D00080917A00806480937A0080917A0086FD12
:1004E000FCCF809178009091790008953FB7F894FF
:1004F0008091B3019091B401A091B501B091B60182
:1005000026B5A89B05C02F3F19F00196A11DB11D6E
:100510003FBFBA2FA92F982F8827BC01CD01620FAA
:10052000711D811D911D42E0660F771F881F991F65
:100530004A95D1F708951F93CF93DF93C1E0C093FD
:100540004401882399F1D091B8001091BA008091AC
:10055000BC008A7B8093BC0060E082E10E94F701CE
:1005600060E083E10E94F7011092DD01C093DC019D
:100570001092B70161E082E10E94F70161E083E13E
:100580000E94F7018091B9008E7F8093B90080911D
:10059000B9008D7F8093B90088E48093B80085E42A
:1005A0008093BC001093BA00D093B800DF91CF9134
:1005B0001F910895CF92DF92EF92FF920F931F93B6
:1005C000CF93DF93D091060281E0D13208F09CC036
:1005D000C09105020E9476026B017C018091DD01D1
:1005E00081116CC082E08093DD0181E08093DC01A9
:1005F0008FEF8093DB011092DA01D093D901A5EE41
:10060000B1E0E9EBF1E080E0D8138DC01092B801C1
:100610008091B801CC0FC82BC093B8018091B7016D
:10062000813009F084C01092B7010E9476026B01FC
:100630007C018091B8018093BB008091DF01909193
:10064000E001A091E101B091E201892B8A2B8B2B73
:10065000A1F00E9476020091DF011091E00120914B
:10066000E1013091E2016C197D098E099F0906179D
:1006700017072807390708F442C08091BC0083FDA2
:10068000D8CF85EC8093BC000E9476026B017C0180
:100690008091DD01823009F44CC08091DB018F3FF5
:1006A00009F469C08091DB01803209F466C0809151
:1006B000DB01803309F463C084E026C08091DF0150
:1006C0009091E001A091E101B091E201892B8A2B88
:1006D0008B2B09F483CF0E9476020091DF011091E9
:1006E000E0012091E1013091E2016C197D098E0950
:1006F0009F09061717072807390708F06FCF809161
:10070000DE010E949B0285E01092E4011092060235
:100710001092E301DF91CF911F910F91FF90EF9025
:10072000DF90CF9008959D9191938F5F6DCF85EE6F
:10073000A9CF8091DF019091E001A091E101B091FA
:10074000E201892B8A2B8B2B09F4A2CF0E9476021F
:100750000091DF011091E0012091E1013091E2016F
:100760006C197D098E099F09061717072807390795
:1007700008F08ECFC4CF80E0C7CF82E0C5CF83E042
:10078000C3CF20916501260F3327331F2132310556
:10079000ECF42091DD01FC0190E080E0243069F070
:1007A00082E00895A09165012191AC014B5B5E4F01
:1007B000A40FB52FB11D2C930196861798F3809145
:1007C0006501680F6093650180E0089581E00895F8
:1007D00008958FEF9FEF08958FEF9FEF0895809119
:1007E000430190E09195819591090895CF92DF9210
:1007F000EF92FF920F931F93CF93DF937C01CB0176
:100800008A012091E301222389F0EB016B01C40EE0
:10081000D51ECC15DD0569F06991D701ED91FC91EC
:100820000190F081E02DC7010995F3CF642F0E945C
:10083000C103C801DF91CF911F910F91FF90EF90FD
:10084000DF90CF900895CF93DF931F92CDB7DEB79F
:1008500069832091E3012223F9F0209106022032DE
:1008600058F021E030E0FC013383228390E080E007
:100870000F90DF91CF9108958091E401E82FF0E08F
:10088000EB51FE4F998190838F5F8093E4018093B9
:10089000060281E090E0ECCF61E0CE0101960E947B
:1008A000C103F7CF682F84EA92E00C942304682FE9
:1008B00084EA92E00C942304CF93DF93D62FC42FC5
:1008C00091E09093E30192E6909305021092E40187
:1008D00010920602682F84EA92E00E9423046D2F92
:1008E00084EA92E00E9423046C2F84EA92E00E9442
:1008F0002304DF91CF910C94DA0290E080E0089518
:10090000EF92FF920F931F93CF93DF93E62E172F53
:10091000F42ED52F022FC32F262F372F211590E12C
:1009200039072CF437FF06C0E12C10E003C0EE2499
:10093000EA941FE02F2D3D2F211590E139072CF46B
:1009400037FF06C0F12CD0E003C0FF24FA94DFE0AB
:10095000202F3C2F211590E139072CF437FF05C0DB
:1009600000E0C0E002C00FEFCFE091E09093E30120
:1009700090E6909305021092E4011092060224E0A2
:10098000829FC001112406960E94570490E080E0E7
:100990000E94570490E080E00E9457048E2D912F12
:1009A0000E945204812F90E00E94520490E080E067
:1009B0000E94570490E080E00E9457048F2D9D2FE5
:1009C0000E9452048D2F90E00E94520490E080E03B
:1009D0000E94570490E080E00E945704802F9C2FD3
:1009E0000E9452048C2F90E00E945204DF91CF911C
:1009F0001F910F91FF90EF900C94DA02CF93DF9349
:100A0000D62FC72F262F372F211590E139072CF429
:100A100037FF05C0D0E0C0E002C0DFEFCFE091E0DB
:100A20009093E30190E6909305021092E4011092F6
:100A3000060224E0829FC001112406960E945704FA
:100A400090E080E00E94570490E080E00E9457040C
:100A50008D2F9C2F0E9452048C2F90E00E945204F4
:100A6000DF91CF910C94DA028F929F92AF92BF9256
:100A7000FF920F931F93CF93DF93EC018A819B81A9
:100A8000029709F05EC0FC808BE08F1508F44FC020
:100A90008E8108E512E0081B110987FD1395000FF0
:100AA000111F000F111F8D81C8E8D0E0C81BD109AC
:100AB00087FDD395CC0FDD1FCC0FDD1F4E010D2E12
:100AC000000CAA08BB08DB01653B710514F0A4EB20
:100AD000B0E09801012E000C440B550B2819390980
:100AE0004A095B090E94F70B24EB30E040E050E03C
:100AF0000E94CD0B820E931EA41EB51E8C169D0661
:100B00002CF0E801801691060CF4E4012297CC0F3A
:100B1000DD1F2FB7F8948F2D90E0FC01EE0FFF1F23
:100B2000E80FF91FE757FE4FD283C1832FBFDF9134
:100B3000CF911F910F91FF90BF90AF909F908F909A
:100B400008952AE931E0DB010E94450C24EB30E0F6
:100B500040E050E00E94CD0BCA01B90167597F4FB8
:100B60008F4F9F4F8881DF91CF911F910F91FF9001
:100B7000BF90AF909F908F900C94FE044F925F9225
:100B80006F927F928F929F92AF92BF92CF92DF929D
:100B9000EF92FF92CF93DF93EC012C8130E0AFEF27
:100BA000BFE00E94360CC12CD12C7601CA94A7015B
:100BB00096010E94CD0B29012A8130E0AFEFBFE002
:100BC0000E94360CA70196010E94CD0B49012B8192
:100BD00030E0AFEFBFE00E94360CA70196010E9403
:100BE000CD0BB901E88129812330A1F49201AB0139
:100BF000B4018E2FDF91CF91FF90EF90DF90CF90D7
:100C0000BF90AF909F908F907F906F905F904F902C
:100C10000C9480049201A401ECCF1F93CF93DF9337
:100C2000EC01162F8C819D81019741F0888121E094
:100C300030E03D832C8361E00E942502612F888192
:100C4000DF91CF911F910C94F701CF93DF93EC01CB
:100C50008C819D81892B31F088811D821C8260E00E
:100C60000E94250288810E94CE0121E0892B09F48F
:100C700020E0822FDF91CF910895EF92FF920F93A2
:100C80001F93CF93DF93EC01DB0177FF2EC01D8212
:100C90001C82B195A195B109EC80FD800881198174
:100CA0008E819F810397D4F52FEF3FE00E94450C82
:100CB00024E630E040E050E00E94CD0BB9013B83D8
:100CC0002A8305301105E1F4EA94EF2899F49B0199
:100CD00050E040E06FEF7FE083E0DF91CF911F9124
:100CE0000F91FF90EF900C94800481E090E09D8341
:100CF0008C83D2CF9B014FEF5FE070E060E0ECCFE0
:100D0000EA94EF2831F42FEF3FE050E040E0802FED
:100D1000E4CF30E020E04FEF5FE0F9CF2FEF30E09D
:100D20000E94450C24E630E040E050E00E94CD0BEC
:100D30002A833B8382E8800F422F60E0EA94EF2809
:100D400011F040E0622FDF91CF911F910F91FF9042
:100D5000EF900C945C04FC0101900020E9F73197BE
:100D6000AF01481B590BBC0187E092E00C94A20034
:100D70000F931F93CF93DF93EC01888199810097A4
:100D800059F02A813B812617370730F081E0DF9147
:100D9000CF911F910F9108958B016F5F7F4F0E943C
:100DA000770D009759F0998388831B830A832C81E0
:100DB0003D81232B59F7FC011082E8CF80E0E7CF7B
:100DC000EF92FF920F931F93CF93DF93EC017B0180
:100DD000198218821B821A821D821C82FB010190DB
:100DE0000020E9F731978F01061B170BB8010E940D
:100DF000B80628813981811113C02115310519F0F8
:100E0000C9010E94EE0C198218821D821C821B826D
:100E10001A82DF91CF911F910F91FF90EF9008956B
:100E20001D830C83B701C901DF91CF911F910F91F1
:100E3000FF90EF900C943D0E85ED8093BC00809167
:100E4000DF019091E001A091E101B091E2010796EC
:100E5000A11DB11D23E0B695A795979587952A9575
:100E6000D1F72091BC0024FD03C01092DD0108954C
:100E70004091DF015091E0016091E1017091E20148
:100E8000452B462B472B69F30097A105B10541F08F
:100E900025E32A95F1F700000197A109B109E1CFF7
:100EA0008091DE010C949B0287E092E00C9400019B
:100EB0000E940C0181110C94540708951F920F9207
:100EC0000FB60F9211242F933F934F935F936F931D
:100ED0007F938F939F93AF93BF93EF93FF9387E09D
:100EE00092E00E941601FF91EF91BF91AF919F9107
:100EF0008F917F916F915F914F913F912F910F90C3
:100F00000FBE0F901F9018951F920F920FB60F9261
:100F100011242F938F939F93EF93FF93E0911702E8
:100F2000F09118028081E0911D02F0911E0282FD75
:100F30001BC09081809120028F5F8F7320912102CE
:100F4000821741F0E0912002F0E0E95FFD4F958FBC
:100F500080932002FF91EF919F918F912F910F909D
:100F60000FBE0F901F9018958081F4CF1F920F92A3
:100F70000FB60F9211242F933F938F939F93AF93AC
:100F8000BF938091AF019091B001A091B101B09158
:100F9000B2013091AE0123E0230F2D3758F50196B1
:100FA000A11DB11D2093AE018093AF019093B001BC
:100FB000A093B101B093B2018091B3019091B401BB
:100FC000A091B501B091B6010196A11DB11D80930C
:100FD000B3019093B401A093B501B093B601BF9152
:100FE000AF919F918F913F912F910F900FBE0F90D6
:100FF0001F90189526E8230F0296A11DB11DD2CF90
:101000001F920F920FB60F9211242F933F934F937D
:101010005F936F937F938F939F93AF93BF93CF9380
:10102000DF93EF93FF9380918801C091AD01D0E0F1
:1010300087FF24C01092850010928400809188015F
:101040008F5F8093880180918801082E000C990B96
:101050008C179D0724F4809188018C30C4F1809115
:10106000840090918500049680349C4908F47AC0ED
:101070008091840090918500049676C080918801CB
:10108000082E000C990B8C179D07C4F6E09188017F
:101090008E2FEE0F990BFC01EE0FFF1FE80FF91FCB
:1010A000E757FE4F808186FFC9CFE09188018E2FE0
:1010B000EE0F990BFC01EE0FFF1FE80FF91FE7572A
:1010C000FE4F808160E08F730E94F701B7CF2091BF
:1010D000840030918500E09188018E2FEE0F990BEE
:1010E000FC01EE0FFF1FE80FF91FE757FE4F81814C
:1010F0009281820F931F9093890080938800E091E2
:1011000088018E2FEE0F990BFC01EE0FFF1FE80FE9
:10111000F91FE757FE4F808186FF11C0E0918801DB
:101120008E2FEE0F990BFC01EE0FFF1FE80FF91F3A
:10113000E757FE4F808161E08F730E94F701FF91B6
:10114000EF91DF91CF91BF91AF919F918F917F915F
:101150006F915F914F913F912F910F900FBE0F9024
:101160001F90189580E49CE99093890080938800F3
:101170008FEF80938801E3CF1F920F920FB60F92EB
:1011800011242F933F934F935F936F937F938F938C
:101190009F93AF93BF93EF93FF938091B900887FA4
:1011A000803609F44AC0F0F5883209F4A5C018F574
:1011B000803109F499C0B8F4882309F4F5C0883067
:1011C00009F492C0FF91EF91BF91AF919F918F91E0
:1011D0007F916F915F914F913F912F910F900FBE33
:1011E0000F901F901895883109F486C0803251F70E
:1011F0008093DB0114C0803409F49BC040F4803339
:10120000B9F38833F9F68093DB0185ECAEC0803505
:1012100009F483C0883509F494C0883499F60E9493
:101220001C07D0CF883909F48AC038F5883729F0EF
:1012300050F4883611F0803729F683E08093DD0181
:101240001092870155C0883809F479C0803919F0A7
:10125000803809F0B7CF80918701803208F06FC0E5
:10126000E091870181E08E0F809387018091BB0020
:10127000F0E0E959FE4F80833BC0803B39F0D0F469
:10128000803A09F477C0883A09F09CCF84E08093D3
:10129000DD011092660110926501F0E0E0E0099531
:1012A0008091650181110FC081E0809365011092EA
:1012B000450109C0803C09F4A8CF883C09F4A5CFBA
:1012C000883B09F07FCFE091660181E08E0F80932B
:1012D0006601F0E0EB5BFE4F80818093BB00909154
:1012E00066018091650129C08091B8018093BB009F
:1012F00085EC8093BC0066CF9091DA018091D90192
:10130000981758F5E091DA0181E08E0F8093DA01A9
:10131000F0E0E754FE4F8081E9CFE091DA0181E00F
:101320008E0F8093DA018091BB00F0E0E754FE4F0E
:1013300080839091DA018091D9019817C8F285E8ED
:10134000D8CFE091DA0181E08E0F8093DA018091AD
:10135000BB00F0E0E754FE4F80838091DC018111F7
:101360005ECF81E08093B70184EA8093BC00109245
:10137000DD0128CF85EC8093BC001092DD018091C7
:101380008701803230F4E0918701F0E0E959FE4FA7
:1013900010826091870170E087E691E0F0E0E0E084
:1013A0000995109287010ECF1092DB0138CF1F9262
:1013B0000F920FB60F9211240F931F932F933F9309
:1013C0004F935F936F937F938F939F93AF93BF934D
:1013D000EF93FF93CF93DF93CDB7DEB7A197DEBF37
:1013E000CDBFF8947894809140019091410101968D
:1013F0008F309105A4F49093410180934001809136
:1014000042018823C1F140910001509101014F3FF9
:10141000540751F48AE391E00E94AB0626C0109273
:10142000410110924001EBCF052E000C660B770BAB
:1014300019A2CE0181968A019B010F7011272227E4
:10144000332724E076956795579547952A95D1F7E8
:101450000A3064F5005DFC010293CF01411551058E
:101460006105710541F7EF2BB9F687E391E00E9422
:10147000AB0610924201A1960FB6F894DEBF0FBEE4
:10148000CDBFDF91CF91FF91EF91BF91AF919F9130
:101490008F917F916F915F914F913F912F911F910C
:1014A0000F910F900FBE0F901F901895095CD3CF2E
:1014B000FC019091AD019C3098F481E0890F8093FC
:1014C000AD019083892F90E0FC01EE0FFF1FE80F24
:1014D000F91FE757FE4F88EB9BE0928381830895C5
:1014E0008FEF80830895FC0115A216A217A213AEF8
:1014F00081E084AFDF01AF5BBF4F1C9211968C93EC
:1015000011979FE012969C93129713961C92119636
:101510008C93119712961C9211968C931197129698
:101520001C92129713961C92139714961C92149760
:1015300015961C92E35BFF4F108281831282138207
:101540001482158216821782108611860895CF9311
:10155000E7E0F2E01382128288EE93E0A0E0B0E0D0
:1015600084839583A683B7832CE031E03183208385
:1015700025EC30E03587248724EC30E03787268758
:1015800020EC30E0318B208B21EC30E0338B228B50
:1015900022EC30E0358B248B26EC30E0378B268B29
:1015A000118E128E138E148EE4EAF2E013821282F0
:1015B00084839583A683B7838EE191E091838083B2
:1015C00069E371E087EC94E00E94E00686EC92E02B
:1015D0000E94580A8DEC92E00E94580A84ED92E035
:1015E0000E94580A8BED92E00E94580AE0EBF2E06C
:1015F00010AA11AA12AA15AA16AA17AAC1E0C09386
:10160000F202C0930503C0931803C0932B0384E434
:1016100093E00E94730A8BE993E00E94730A82EFC1
:1016200093E00E94730A89E494E00E94730AC093D5
:10163000B204CF910895789484B5826084BD84B556
:10164000816084BD85B5826085BD85B5816085BDBD
:1016500080916E00816080936E0010928100809175
:1016600081008260809381008091810081608093FD
:101670008100809180008160809380008091B10022
:1016800084608093B1008091B00081608093B0004D
:1016900080917A00846080937A0080917A008260E1
:1016A00080937A0080917A00816080937A008091A3
:1016B0007A00806880937A001092C100E09117024E
:1016C000F091180282E08083E0911302F0911402FD
:1016D0001082E0911502F091160280E18083109251
:1016E0001F02E0911B02F0911C0286E08083E091D2
:1016F0001902F0911A02808180618083E0911902C1
:10170000F0911A02808188608083E0911902F09143
:101710001A02808180688083E0911902F0911A0298
:1017200080818F7D80838CE291E00E94AB0687E30D
:1017300091E00E94AB060E940C018823A1F30E9455
:101740005407F1CF8091C7049091C804009711F01D
:101750000C94EE0C0895A1E21A2EAA1BBB1BFD01EE
:101760000DC0AA1FBB1FEE1FFF1FA217B307E40780
:10177000F50720F0A21BB30BE40BF50B661F771FD8
:10178000881F991F1A9469F76095709580959095B8
:101790009B01AC01BD01CF010895052E97FB1EF4FE
:1017A00000940E94E40B57FD07D00E94AB0B07FC8E
:1017B00003D04EF40C94E40B509540953095219550
:1017C0003F4F4F4F5F4F089590958095709561956D
:1017D0007F4F8F4F9F4F08950E94360CA59F900D0D
:1017E000B49F900DA49F800D911D11240895B7FF03
:1017F0000C94EC0B0E94EC0B821B930B08952F9220
:101800003F924F925F926F927F928F929F92AF9290
:10181000BF92CF92DF92EF92FF920F931F93CF93DD
:10182000DF93CDB7DEB7CA1BDB0B0FB6F894DEBF74
:101830000FBECDBF09942A88398848885F846E849A
:101840007D848C849B84AA84B984C884DF80EE80E4
:10185000FD800C811B81AA81B981CE0FD11D0FB6ED
:10186000F894DEBF0FBECDBFED010895A29FB00179
:10187000B39FC001A39F700D811D1124911DB29FC4
:10188000700D811D1124911D08950E94360CB7FF23
:101890000895821B930B0895EE0FFF1F0590F4919E
:1018A000E02D09940F931F93CF93DF93823091051E
:1018B00010F482E090E0E091CF04F091D00430E0A9
:1018C00020E0B0E0A0E0309799F42115310509F44B
:1018D0004AC0281B390B24303105D8F58A819B81F9
:1018E0006115710589F1FB0193838283FE0111C0AB
:1018F000408151810281138148175907E0F0481750
:10190000590799F4109761F012960C931297139659
:101910001C933296CF01DF91CF911F910F910895C3
:101920000093CF041093D004F4CF2115310551F06A
:101930004217530738F0A901DB019A01BD01DF010D
:10194000F801C1CFEF01F9CF9093D0048093CF0479
:10195000CDCFFE01E20FF31F819391932250310905
:1019600039832883D7CF2091CD043091CE04232B07
:1019700041F420910401309105013093CE0420936D
:10198000CD0420910201309103012115310541F46C
:101990002DB73EB74091060150910701241B350B2E
:1019A000E091CD04F091CE04E217F307A0F42E1BD2
:1019B0003F0B2817390778F0AC014E5F5F4F2417B3
:1019C000350748F04E0F5F1F5093CE044093CD046F
:1019D000819391939FCFF0E0E0E09CCFCF93DF9392
:1019E0000097E9F0FC01329713821282A091CF0494
:1019F000B091D004ED0130E020E01097A1F42081F7
:101A00003181820F931F2091CD043091CE0428178D
:101A1000390709F061C0F093CE04E093CD04DF9163
:101A2000CF910895EA01CE17DF07E8F54A815B817F
:101A30009E0141155105B1F7E901FB83EA83499104
:101A40005991C40FD51FEC17FD0761F48081918176
:101A50000296840F951FE90199838883828193817F
:101A60009B838A83F0E0E0E012968D919C9113971E
:101A70000097B9F52D913C911197CD010296820FF7
:101A8000931F2091CD043091CE042817390739F6E1
:101A9000309751F51092D0041092CF04B093CE0439
:101AA000A093CD04BCCFD383C28340815181840FE6
:101AB000951FC817D90761F44E5F5F4F88819981E0
:101AC000480F591F518340838A819B81938382836E
:101AD0002115310509F0B0CFF093D004E093CF0485
:101AE0009ECFFD01DC01C0CF13821282D7CFB0E0C0
:101AF000A0E0EDE7FDE00C94010C8C01009751F49F
:101B0000CB010E94520C8C01C801CDB7DEB7E0E1D9
:101B10000C941D0CFC01E60FF71F9C0122503109AB
:101B2000E217F30708F49DC0D901CD91DC9111971C
:101B3000C617D70798F0C530D10530F3CE0104970A
:101B40008617970708F3C61BD70B2297C193D1932B
:101B50006D937C93CF010E94EE0CD6CF5B01AC1A43
:101B6000BD0A4C018C0E9D1EA091CF04B091D004F3
:101B7000512C412CF12CE12C109731F58091CD04A2
:101B80009091CE048815990509F05CC04616570659
:101B900008F058C08091020190910301009741F430
:101BA0008DB79EB74091060150910701841B950B9C
:101BB000E817F90708F055C0F093CE04E093CD0480
:101BC000F90171836083A0CF8D919C91119712963A
:101BD0006C90129713967C901397A815B90559F538
:101BE0006C0142E0C40ED11CCA14DB0420F1AC012C
:101BF0004A195B09DA011296159780F062827382A6
:101C000051834083D9016D937C93E114F10471F009
:101C1000D7011396FC93EE93129776CF22968C0FF2
:101C20009D1FF90191838083F301EFCFF093D004DE
:101C3000E093CF0469CF4816590608F42C017D01C2
:101C4000D3019ACFCB010E94520C7C01009749F03E
:101C5000AE01B8010E94340EC8010E94EE0C87014B
:101C600053CF10E000E050CFFB01DC0102C0019037
:101C70000D9241505040D8F70895FB01DC010190CE
:101C80000D920020E1F7089510E0C2E6D0E004C014
:101C9000FE010E944C0C2196C336D107C9F7F89477
:021CA000FFCF74
:101CA200FFFF0000D1048000000000003801A20004
:101CB200CF0085010001DE00F200000000002304D5
:101CC200F6037D04E803EF03EC03E9034E455645B2
:101CD20052676F6E6E61000D0A006572726F72005C
:00000001FF
